:020000040800F2
:1000000000500020AD100008F1100008F1100008A9
:10001000F1100008F1100008F110000800000000C5
:10002000000000000000000000000000F1100008C7
:10003000F110000800000000F1100008F1100008A5
:10004000F1100008F1100008F1100008F11000088C
:10005000F1100008F1100008F1100008F11000087C
:10006000F1100008F1100008F1100008F11000086C
:10007000F1100008F1100008F1100008F11000085C
:10008000F1100008F1100008F1100008F11000084C
:10009000F1100008F1100008F11000085D150008CB
:1000A000F1100008F1100008F1100008F11000082C
:1000B000F1100008F1100008F1100008F11000081C
:1000C000F1100008F1100008F1100008F11000080C
:1000D000F1100008F1100008F1100008F1100008FC
:1000E000F1100008F1100008F110000800000000F5
:1000F0000000000000000000000000000000000000
:1001000000000000000000005FF808F110B5054C89
:10011000237833B9044B13B10448AFF300800123B3
:10012000237010BDE8040020000000006C1D0008D2
:10013000084B10B51BB108490848AFF300800848C8
:10014000036803B910BD074B002BFBD0BDE810407E
:10015000184700BF00000000EC0400206C1D0008E0
:10016000E40400200000000080B582B000AF786099
:100170007B682F4A934208D10121042000F0F2FD50
:100180000021042000F0EEFD4EE07B68294A9342F6
:1001900008D10121082000F0E5FD0021082000F031
:1001A000E1FD41E07B68244A934208D101211020FF
:1001B00000F0D8FD0021102000F0D4FD34E07B6871
:1001C0001E4A934208D10121202000F0CBFD0021DE
:1001D000202000F0C7FD27E07B68194A934208D130
:1001E0000121402000F0BEFD0021402000F0BAFDBA
:1001F0001AE07B68134A934208D10121802000F065
:10020000B1FD0021802000F0ADFD0DE07B680E4ABD
:10021000934209D101214FF4807000F0A3FD002129
:100220004FF4807000F09EFD00BF0837BD4680BDD2
:1002300000080140000C0140001001400014014082
:1002400000180140001C01400020014080B500AFB3
:100250000121012000F086FD0021012000F082FD37
:1002600000BF80BD80B489B000AF786039600023E2
:10027000FB6100233B610023BB610023FB60002383
:100280007B610023BB603B68DB7803F00F03FB61FD
:100290003B68DB7803F01003002B05D03B689B78AC
:1002A0001A46FB691343FB613B681B88DBB2002BDA
:1002B00044D07B681B687B610023BB6138E001226E
:1002C000BB6902FA03F3FB603B681B881A46FB68B4
:1002D00013403B613A69FB689A4226D1BB699B0097
:1002E000FB600F22FB6802FA03F3BB60BB68DB43D1
:1002F0007A6913407B61FA69FB6802FA03F37A6951
:1003000013437B613B68DB78282B05D10122BB6955
:100310009A407B685A6108E03B68DB78482B04D13F
:100320000122BB699A407B681A61BB690133BB61DA
:10033000BB69072BC3D97B687A691A603B681B8845
:10034000FF2B46D97B685B687B610023BB613AE089
:10035000BB690833012202FA03F3FB603B681B8888
:100360001A46FB6813403B613A69FB689A4227D101
:10037000BB699B00FB600F22FB6802FA03F3BB60C2
:10038000BB68DB437A6913407B61FA69FB6802FA58
:1003900003F37A6913437B613B68DB78282B05D133
:1003A000BB69083301229A407B685A613B68DB785D
:1003B000482B05D1BB69083301229A407B681A613A
:1003C000BB690133BB61BB69072BC1D97B687A6903
:1003D0005A6000BF2437BD4680BC704780B483B0EC
:1003E00000AF78607B684FF6FF721A807B6802224C
:1003F0009A707B680422DA7000BF0C37BD4680BC5F
:10040000704700BF80B485B000AF78600B467B803A
:100410000023FB737B689A687B881340002B02D013
:100420000123FB7301E00023FB73FB7B18461437A9
:10043000BD4680BC704700BF80B483B000AF786019
:100440007B689B689BB218460C37BD4680BC7047E2
:1004500080B485B000AF78600B467B800023FB73CF
:100460007B68DA687B881340002B02D00123FB7382
:1004700001E00023FB73FB7B18461437BD4680BCAC
:10048000704700BF80B483B000AF78607B68DB68E2
:100490009BB218460C37BD4680BC704780B483B011
:1004A00000AF78600B467B807A887B681A6100BF5A
:1004B0000C37BD4680BC704780B483B000AF786015
:1004C0000B467B807A887B685A6100BF0C37BD463B
:1004D00080BC704780B483B000AF78600B467B80EF
:1004E00013467B707B78002B03D07A887B681A6177
:1004F00002E07A887B685A6100BF0C37BD4680BC39
:10050000704700BF80B483B000AF78600B467B803B
:100510007A887B68DA6000BF0C37BD4680BC7047C4
:1005200080B485B000AF78600B467B804FF4803399
:10053000FB607B88FA681343FB607B68FA689A610A
:100540007A887B689A617B68FA689A617B689B69A4
:10055000FB607B689B69FB6000BF1437BD4680BCB5
:10056000704700BF80B485B000AF03460A46FB71F8
:100570001346BB710023FB600C4B1B68FB60FA68E1
:100580004FF680731340FB60FB791B01FA6813433D
:10059000FB60BB79FA681343FB60044AFB68136095
:1005A00000BF1437BD4680BC704700BF000001404B
:1005B00080B483B000AF0346FB71044AFB7913603B
:1005C00000BF0C37BD4680BC704700BF1C002042F6
:1005D00080B487B000AF78600B46FB7000233B61AE
:1005E0000023FB6000237B610023BB607B68002B42
:1005F00003DA2E4BDB697B6102E02C4B5B687B618D
:100600007B681B0C03F00F03BB607B689BB23B61F4
:100610007B6803F44013B3F5401F0AD17B6923F0D4
:1006200070637B61214A214B5B6823F070635360E8
:1006300021E07B6803F48013002B0ED00322BB68FB
:1006400002FA03F3FB60FB68DB437A6913407B61CA
:100650007B6943F070637B610DE07B685B0D1B0180
:100660003A6902FA03F3DB437A6913407B617B69E1
:1006700043F070637B61FB78002B08D07B685B0DD7
:100680001B013A6902FA03F37A6913437B617B68C1
:10069000002B03DA054A7B69D36102E0034A7B69D8
:1006A000536000BF1C37BD4680BC7047000001404E
:1006B00090B484B000AF03460A46FB711346BB7189
:1006C0000023FB60BB7903F003039B000F2202FAB7
:1006D00003F3FB601649BB799B08DBB21846144A4A
:1006E000BB799B08DBB2023352F82320FB68DB4363
:1006F0001A40831C41F823200D48BB799B08DBB2CC
:100700001C460B4ABB799B08DBB2023352F823200C
:10071000F979BB7903F003039B0001FA03F31A4351
:10072000A31C40F8232000BF1037BD4690BC704783
:100730000000014080B483B000AF7860034A7B685A
:10074000136000BF0C37BD4680BC7047DC00204200
:1007500080B400AF134A134B1B6843F001031360CE
:100760001049104B5A68104B13404B600D4A0D4B0B
:100770001B6823F0847323F480331360094A094B08
:100780001B6823F480231360064A064B5B6823F43E
:10079000FE035360034B4FF41F029A6000BFBD4637
:1007A00080BC7047001002400000FFF880B483B0A6
:1007B00000AF7860134A134B1B6823F48033136037
:1007C000104A104B1B6823F4802313607B68B3F539
:1007D000803F03D0B3F5802F07D00DE0094A094BC5
:1007E0001B6843F48033136006E0064A054B1B6820
:1007F00043F4A023136000BF00BF0C37BD4680BC8C
:10080000704700BF0010024080B582B000AF0023E7
:100810003B600023FB710023BB71312000F00EFB15
:100820000346BB713B6801333B603B68B3F5A06F87
:1008300002D0BB79002BF0D0312000F0FFFA034644
:10084000002B02D00123FB7101E00023FB71FB7937
:1008500018460837BD4680BD80B485B000AF03465A
:10086000FB710023FB600A4B1B68FB60FB6823F0F5
:10087000F803FB60FB79DB00FA681343FB60044A72
:10088000FB68136000BF1437BD4680BC704700BFD3
:100890000010024080B483B000AF0346FB71044AED
:1008A000FB79136000BF0C37BD4680BC704700BFAA
:1008B0000000424280B485B000AF78603960002308
:1008C000FB600A4B5B68FB60FB6823F47C13FB60F6
:1008D0007A683B681343FA681343FB60034AFB687A
:1008E000536000BF1437BD4680BC70470010024003
:1008F00080B483B000AF0346FB71044AFB791360F8
:1009000000BF0C37BD4680BC704700BF600042424C
:1009100080B485B000AF78600023FB60094B5B6852
:10092000FB60FB6823F00303FB60FA687B681343FA
:10093000FB60044AFB68536000BF1437BD4680BCAF
:10094000704700BF0010024080B400AF044B5B68EA
:10095000DBB203F00C03DBB21846BD4680BC704727
:100960000010024080B485B000AF78600023FB60C7
:10097000094B5B68FB60FB6823F0F003FB60FA68DF
:100980007B681343FB60044AFB68536000BF143765
:10099000BD4680BC704700BF0010024080B485B0E7
:1009A00000AF78600023FB60094B5B68FB60FB686D
:1009B00023F4E063FB60FA687B681343FB60044A3E
:1009C000FB68536000BF1437BD4680BC704700BF52
:1009D0000010024080B485B000AF78600023FB6057
:1009E000094B5B68FB60FB6823F46053FB607B682A
:1009F000DB00FA681343FB60034AFB68536000BFE7
:100A00001437BD4680BC70470010024080B483B0EC
:100A100000AF03460A46FB711346BB71BB79002B3E
:100A200008D00C490B4B1B78DAB2FB791343DBB2CD
:100A30000B7009E00749074B1B78DAB2FB79DB43FF
:100A4000DBB21340DBB20B7000BF0C37BD4680BC7D
:100A5000704700BF0910024080B483B000AF7860D7
:100A6000034A7B68136000BF0C37BD4680BC7047EB
:100A7000D800424280B485B000AF78600023FB60AC
:100A8000094B5B68FB60FB6823F44043FB60FA683A
:100A90007B681343FB60044AFB68536000BF143754
:100AA000BD4680BC704700BF0010024080B483B0D8
:100AB00000AF0346FB710C4B00221A700A4B002258
:100AC0001A70FB79012B02D0042B04D007E0064BEF
:100AD00001221A7003E0044B05221A7000BF00BF08
:100AE0000C37BD4680BC70472010024080B483B0F4
:100AF00000AF0346FB71044AFB79136000BF0C375B
:100B0000BD4680BC704700BF8004424280B483B0C1
:100B100000AF78600549054B1A6A7B6813430B6286
:100B200000BF0C37BD4680BC704700BF00100240BC
:100B300080B483B000AF0346FB71044AFB791360B5
:100B400000BF0C37BD4680BC704700BF3C0442422A
:100B500080B487B000AF786000237B6100233B61E5
:100B60000023FB600023BB604C4B5B6803F00C036D
:100B70007B617B69042B07D0082B09D0002B33D174
:100B80007B68474A1A6033E07B68454A1A602FE069
:100B9000424B5B6803F470133B61404B5B6803F4AA
:100BA0008033FB603B699B0C02333B61FB68002B8D
:100BB00006D13B693B4A02FB03F27B681A6017E0EF
:100BC000364B5B6803F40033002B06D03B69354A93
:100BD00002FB03F27B681A600AE03B69304A02FBC1
:100BE00003F27B681A6003E07B682D4A1A6000BF3D
:100BF0002A4B5B6803F0F0037B617B691B097B6117
:100C0000294A7B6913441B78DBB2BB607B681A6896
:100C1000BB68DA407B685A60204B5B6803F4E06392
:100C20007B617B691B0A7B611F4A7B6913441B78CC
:100C3000DBB2BB607B685A68BB68DA407B689A604D
:100C4000164B5B6803F460537B617B69DB0A7B6155
:100C5000154A7B6913441B78DBB2BB607B685A681A
:100C6000BB68DA407B68DA600C4B5B6803F4404396
:100C70007B617B699B0B7B610C4A7B6913441B780E
:100C8000DBB2BB607B68DA68BB68B2FBF3F27B68FF
:100C90001A6100BF1C37BD4680BC7047001002407F
:100CA00000127A0000093D00000000201000002022
:100CB00080B483B000AF78600B46FB70FB78002BEC
:100CC00006D00949084B5A697B6813434B6106E01B
:100CD0000549054B5A697B68DB4313404B6100BFF4
:100CE0000C37BD4680BC70470010024080B483B012
:100CF00000AF78600B46FB70FB78002B06D00949EB
:100D0000084B9A697B6813438B6106E00549054BE4
:100D10009A697B68DB4313408B6100BF0C37BD468B
:100D200080BC70470010024080B483B000AF786090
:100D30000B46FB70FB78002B06D00949084BDA699B
:100D40007B681343CB6106E00549054BDA697B6894
:100D5000DB431340CB6100BF0C37BD4680BC7047FE
:100D60000010024080B483B000AF78600B46FB7087
:100D7000FB78002B06D00949084BDA687B681343DF
:100D8000CB6006E00549054BDA687B68DB4313401E
:100D9000CB6000BF0C37BD4680BC704700100240DE
:100DA00080B483B000AF78600B46FB70FB78002BFB
:100DB00006D00949084B1A697B6813430B6106E0AA
:100DC0000549054B1A697B68DB4313400B6100BF83
:100DD0000C37BD4680BC70470010024080B483B021
:100DE00000AF0346FB71044AFB79136000BF0C3768
:100DF000BD4680BC704700BF4004424280B483B00F
:100E000000AF0346FB71044AFB79136000BF0C3747
:100E1000BD4680BC704700BF4C00424280B483B0E6
:100E200000AF0346FB71044AFB79137000BF0C3717
:100E3000BD4680BC704700BF0710024080B487B039
:100E400000AF0346FB710023FB6000237B6100239E
:100E5000FB74FB795B09DBB2FB60FB68012B03D100
:100E6000124B1B687B6109E0FB68022B03D10F4B1F
:100E70001B6A7B6102E00D4B5B6A7B61FB7903F0CF
:100E80001F03FB607A69FB6822FA03F303F0010396
:100E9000002B02D00123FB7401E00023FB74FB7CD8
:100EA00018461C37BD4680BC704700BF001002408A
:100EB00080B400AF044A044B5B6A43F08073536212
:100EC00000BFBD4680BC70470010024080B485B0B2
:100ED00000AF0346FB710023FB73084B9A68FB7954
:100EE0001340002B02D00123FB7301E00023FB73AE
:100EF000FB7B18461437BD4680BC7047001002408B
:100F000080B483B000AF0346FB71044AFB791370D1
:100F100000BF0C37BD4680BC704700BF0A100240BE
:100F200080B483B000AF7860054A7B6843F0BF634C
:100F300043F40033D36000BF0C37BD4680BC70471C
:100F400000ED00E080B487B000AF786000237B61E3
:100F500000233B610F23FB607B68DB78002B3AD0DA
:100F6000274BDB68DB4303F4E0631B0A7B617B698F
:100F7000C3F104033B61FA687B6922FA03F3FB6067
:100F80007B685B781A463B6902FA03F37B617B68F6
:100F90009B781A46FB6813407A6913437B617B692F
:100FA0001B017B61174A7B681B787969C9B21344BE
:100FB0000A4683F80023134A7B681B785B09DBB27F
:100FC00018467B681B7803F01F03012101FA03F325
:100FD00042F820300FE00B497B681B785B09DBB2DD
:100FE00018467B681B7803F01F0301229A4000F12A
:100FF000200341F8232000BF1C37BD4680BC70474A
:1010000000ED00E000E100E080B483B000AF786064
:10101000396007493B6823F0604323F07F037A6817
:1010200013438B6000BF0C37BD4680BC704700BFC8
:1010300000ED00E080B483B000AF03460A46FB71C8
:101040001346BB71BB79002B06D00949084B1A69BE
:10105000FB7913430B6106E00549054B1A69FB79DF
:10106000DB4313400B6100BF0C37BD4680BC7047AB
:1010700000ED00E080B483B000AF78607B68042BA3
:1010800006D1094A084B1B6843F00403136005E0CE
:10109000054A054B1B6823F00403136000BF0C379F
:1010A000BD4680BC704700BF10E000E0002103E0B7
:1010B0000A4B5B584350043109480A4B42189A4284
:1010C000F6D3094A02E0002342F8043B074B9A4258
:1010D000F9D300F00FF800F05BFA70476C1D0008C0
:1010E00000000020E8040020E8040020080500209B
:1010F000FEE7000080B500AF154A154B1B6843F0B2
:10110000010313601249124B5A68124B13404B6093
:101110000F4A0F4B1B6823F0847323F48033136052
:101120000B4A0B4B1B6823F480231360084A084BBF
:101130005B6823F4FE035360054B4FF41F029A6073
:1011400000F078F8044B4FF000629A6000BF80BD59
:10115000001002400000FFF800ED00E080B485B010
:1011600000AF0023FB600023BB6000237B602C4B9F
:101170005B6803F00C03FB60FB68042B07D0082BB3
:1011800009D0002B33D1274B274A1A6033E0254B77
:10119000254A1A602FE0224B5B6803F47013BB6092
:1011A0001F4B5B6803F480337B60BB689B0C02338E
:1011B000BB607B68002B06D1BB681C4A02FB03F3B3
:1011C000184A136017E0164B5B6803F40033002BDA
:1011D00006D0BB68154A02FB03F3124A13600AE00B
:1011E000BB68114A02FB03F30E4A136003E00D4B88
:1011F0000D4A1A6000BF0A4B5B6803F0F0031B093D
:101200000B4AD35CDBB2FB60064B1A68FB6822FA20
:1012100003F3044A136000BF1437BD4680BC704717
:10122000001002401400002000127A0000093D0066
:101230001800002080B500AF00F002F800BF80BDAC
:1012400080B483B000AF00237B6000233B603A4A48
:10125000394B1B6843F480331360374B1B6803F42E
:1012600000333B607B6801337B603B68002B03D11C
:101270007B68B3F5A06FF0D12F4B1B6803F40033EC
:10128000002B02D001233B6001E000233B603B6860
:10129000012B4BD1294A294B1B6843F010031360E3
:1012A000264A264B1B6823F003031360234A234B73
:1012B0001B6843F0020313601F4A1F4B5B685360B7
:1012C0001D4A1D4B5B6853601B4A1B4B5B6843F414
:1012D00080635360184A184B5B6823F47C13536097
:1012E000154A154B5B6843F4E8135360124A124BDE
:1012F0001B6843F08073136000BF0F4B1B6803F043
:101300000073002BF9D00C4A0B4B5B6823F00303EE
:101310005360094A084B5B6843F00203536000BF07
:10132000054B5B6803F00C03082BF9D100BF0C37A9
:10133000BD4680BC704700BF001002400020024044
:1013400080B400AF094B00221A60084B00225A609B
:10135000064B00229A60054B0022DA60034B044AD8
:101360005A6100BFBD4680BC704700BF0004014009
:10137000FFFF0F0080B485B000AF78600023FB60F2
:10138000344BFB607B689B79002B4FD03149314B4C
:101390001A687B681B68DB4313400B602D492D4B9B
:1013A0005A687B681B68DB4313404B607B681B7982
:1013B0001A46FB681344FB60FB68FA6811687A6898
:1013C00012680A431A602349224B9A687B681B689B
:1013D000DB4313408B601F491E4BDA687B681B6838
:1013E000DB431340CB607B685B79102B0ED119492E
:1013F000184B9A687B681B6813438B601549154B23
:10140000DA687B681B681343CB601DE0114BFB60FF
:101410007B685B791A46FB681344FB60FB68FA68DB
:1014200011687A6812680A431A600DE07B681B79BC
:101430001A46FB681344FB60FB68FA6811687A6817
:101440001268D2430A401A6000BF1437BD4680BC00
:10145000704700BF0004014080B483B000AF7860E3
:101460007B6800221A607B6800221A717B680C225C
:101470005A717B6800229A7100BF0C37BD4680BC50
:10148000704700BF80B483B000AF78600549054B5A
:101490001A697B6813430B6100BF0C37BD4680BCE3
:1014A000704700BF0004014080B485B000AF786091
:1014B0000023FB73084B5A697B681340002B02D052
:1014C0000123FB7301E00023FB73FB7B18461437F9
:1014D000BD4680BC704700BF0004014080B483B0AB
:1014E00000AF7860034A7B68536100BF0C37BD468C
:1014F00080BC70470004014080B485B000AF7860C4
:101500000023FB730023BB600C4B1A687B681340FD
:10151000BB600A4B5A697B681340002B05D0BB683F
:10152000002B02D00123FB7301E00023FB73FB7B44
:1015300018461437BD4680BC704700BF0004014008
:1015400080B483B000AF7860034A7B68536100BF0A
:101550000C37BD4680BC70470004014080B500AF29
:10156000D1B2002901D100F0B3F900F0D9FA07484F
:101570000649096841F4007101600448034949695A
:1015800041F40071416100BF80BD00BF0004014013
:1015900080B500AF01210820FFF7A8FB0121102032
:1015A000FFF7A4FB01210120FFF7A0FB00F008F8E2
:1015B00000F040F862B600F063F800F073F8FEE760
:1015C00080B400AF19481949496821F030014160E1
:1015D00016481649496821F0C00141601348134973
:1015E000496841F04001416010481049496821F0C4
:1015F000030141600D480D49496821F00C0141602B
:101600000A480A49496841F004014160084808490C
:10161000496841F44011416005480549496821F491
:101620004001416000BFBD4680BC7047000C0140D6
:101630000010014080B584B000AF09210120FFF700
:1016400037F84FF40071B960002139730C217973B8
:101650000121B97307F108010846FFF78BFE172136
:101660003971002179710021B9710121F971391D98
:101670000846FFF767FC00BF1037BD4680BD00BFBE
:1016800080B400AF06480649496821F03001416046
:1016900001210C4600210A4600BFBD4680BC7047B0
:1016A000000C014080B400AF04480449096841F4CB
:1016B0000071016000BFBD4680BC7047000401405E
:1016C00080B400AF04480449096821F40071016046
:1016D00000BFBD4680BC70470004014080B483B0A9
:1016E00000AF0021F9710021B9710021797100BFAB
:1016F0003A49896801F480710029F9D10021F97112
:101700003FE000BF3549896801F480710029F9D0B4
:101710003249896801F40071002914BF01210021B8
:10172000C9B27971B979490048B297F905100143F6
:1017300049B2B9711CE0B97901F0010079798842A8
:101740000CD02649896801F40071002902D0682173
:101750000A4601E0A0210A46002139E01F498968B4
:1017600001F40071002914BF01210021C9B279716F
:101770001A49896801F480710029DCD1F9790131B5
:10178000F971F9790729BCD9B97901F0FE01B429B9
:101790001BD112481149496841F03001416000BF36
:1017A0000E49896801F480710029F9D000BF0B4906
:1017B000896801F480710029F9D10848074949680E
:1017C00021F030014160B97902E000210A46002190
:1017D00008460C37BD4680BC704700BF000C014076
:1017E00080B483B000AF0021F9710021B9710021EC
:1017F000797100BF3549896801F480710029F9D1F8
:101800000021F9713FE000BF3049896801F480711F
:101810000029F9D02D49896801F40071002914BF0D
:1018200001210021C9B27971B979490048B297F90B
:101830000510014349B2B9711CE0B97901F001000A
:10184000797988420CD02149896801F40071002916
:1018500002D068210A4601E0A0210A46002130E0BA
:101860001A49896801F40071002914BF012100217F
:10187000C9B279711549896801F480710029DCD1F8
:10188000F9790131F971F9790729BCD90F480F4964
:10189000496841F03001416000BF0C49896801F49A
:1018A00080710029F9D000BF0849896801F480716E
:1018B0000029F9D105480549496821F03001416006
:1018C000B97908460C37BD4680BC7047000C014012
:1018D00080B582B000AF0021F9711F49896801F419
:1018E0008071002909D01D481C49096821F4007144
:1018F0000160D1B200290AD006E0184817490968EA
:1019000041F40071016023E0D1B2A0291FD1FFF79B
:10191000E5FE0146F971F979002908D100210A464E
:101920000E480E49096841F40071016010E0F97930
:1019300001F00101002902D0A8210A4601E060213E
:101940000A46FFF74DFF0146084605490870FB7936
:101950000837BD4680BD00BF000C014000040140B7
:101960000405002080B483B000AF0021F9712EE09F
:1019700000BF2A49896801F480710029F9D1D9B2E0
:101980000846F979C1F1070140FA01F101F00101BE
:10199000002906D021482149496821F030014160E1
:1019A00005E01E481D49496841F0300141601B486F
:1019B0001A49496821F00301416000BF174989684D
:1019C00001F480710029F9D0F9790131F971F979BF
:1019D0000729CDD900BF1149896801F48071002918
:1019E000F9D10E480D49496821F03001416000BF2E
:1019F0000A49896801F480710029F9D0074989688A
:101A000001F40071002902D1B8210A4601E0C02189
:101A10000A4600BF0C37BD4680BC7047000C014031
:101A200080B483B000AF00210B463B483A49496877
:101A300021F0030141600021F9713EE000BF364909
:101A4000896801F480710029F9D0D9B2490048B2FF
:101A50003149896801F40071002914BF0121002176
:101A6000C9B249B2014349B2C9B20B461CE0D9B26E
:101A700001F00101C8B22849896801F40071002908
:101A800014BF01210021C9B24140C9B200290BD0C5
:101A90002149896801F40071002902D068210A46B1
:101AA00036E0A0210A4633E01B49896801F48071C1
:101AB0000029DCD1F9790131F971F9790729BDD90A
:101AC000E1B2002922D01549097818291ED0124800
:101AD0001149496841F03001416000BF0E498968F1
:101AE00001F480710029F9D000BF0B49896801F425
:101AF00080710029F9D108480749496821F030016F
:101B0000416080210A4600210C4601E088210A46F6
:101B10000C37BD4680BC7047000C01400405002016
:101B2000A8B500AFD1B2A0297BD0A0290BDC6829D1
:101B300072D0682902DC602911D075E0802918D0A4
:101B4000882911D070E0B82952D0B82902DCA82920
:101B50003FD069E0C0295AD0C82958D064E001219B
:101B60000C46FFF75DFFDDE700210A4601210C4628
:101B70005DE03049097818290AD92E490978481CAE
:101B8000C5B22C4805700846DDB22B490D541BE048
:101B900028490978172917D826490978002904D136
:101BA000D9B221F00F01C9B20B4622490978481C6D
:101BB000C5B2204805700D4608461F49085CD9B2D9
:101BC0000143C8B21C49485501210C46FFF728FFC4
:101BD000A8E718490978481CC5B216480570084698
:101BE0001549095C0B4601210C46FFF7BBFE99E73E
:101BF00010490978481CC5B20E48057008460E49C0
:101C0000095C0B4601210C46FFF7ACFE8AE7012177
:101C10000C4600210A460AE001210C4600210A4632
:101C200005E0FFF755FE7DE701210C4600BF00BF30
:101C3000A8BD00BF040500202800002080B485B0A6
:101C400000AF78600021F96003E000BFF96801315E
:101C5000F960F86879688842F7D300BF1437BD4649
:101C600080BC7047024B13B1024800F005B87047C2
:101C700000000000851C0008002301461A46184693
:101C800000F014B838B5074D074C2C1BA41005D034
:101C9000013C55F8043D9847002CF9D1BDE8384087
:101CA00000F05CB8E4040020E00400202DE9F047D7
:101CB000254C064625688846D5F8484192469946FF
:101CC000C4B360681F2817DC411C76B104EB8003A5
:101CD000C3F888A0D4F88851012282401543022E0F
:101CE000C4F88851C3F808911ED0831C616000209D
:101CF00044F82380BDE8F087144B03B34FF4C87059
:101D0000AFF300800446D0B1D5F84831002784E80D
:101D100088003846C5F848410121C4F88871C4F8E4
:101D20008C71002EE1D0D1E7D4F88C311A43C4F87D
:101D30008C21DAE705F5A674C5F84841C1E74FF0F4
:101D4000FF30BDE8F08700BF681D000800000000FC
:101D5000F8B500BFF8BC08BC9E467047F8B500BF98
:0C1D6000F8BC08BC9E467047B000002094
:101D6C000000000001020304010203040607080935
:101D7C000204060800A24A04000000000000000053
:101D8C0001020304060708090A9A23854FAA5D334A
:101D9C00972A65CC2B00000000000000000000001A
:101DAC000E26A593B2601C17818158406929103703
:101DBC00B19046048A0A213F24326C64E000605AD8
:101DCC0014DDF90E6D8EE5D142107FC600000000C7
:101DDC0000000000000000000000000000000000F7
:101DEC00239200001E000C0099801A469FAA025DE7
:101DFC001C70534EF12167014000100000180000C8
:101E0C00000002FF5E020C00AAABACADAEAF00004E
:101E1C00000000009C030020040400206C0400203F
:101E2C0000000000000000000000000000000000A6
:101E3C000000000000000000000000000000000096
:101E4C000000000000000000000000000000000086
:101E5C000000000000000000000000000000000076
:101E6C000000000000000000000000000000000066
:101E7C000000000000000000000000000000000056
:101E8C000000000000000000000000000000000046
:101E9C000000000000000000000000000000000036
:101EAC000000000000000000000000000000000026
:101EBC000000000000000000010000000000000015
:101ECC000E33CDAB34126DE6ECDE05000B000000DA
:101EDC0000000000000000000000000000000000F6
:101EEC0000000000000000000000000000000000E6
:101EFC0000000000000000000000000000000000D6
:101F0C0000000000000000000000000000000000C5
:10223C000000000000000000651C000831010008CF
:08224C000D0100080000000074
:0400000508000000EF
:00000001FF
